:020000040800F2
:100000002805002045010008831D0008D51A0008B6
:10001000811D0008CD060008A12200080000000094
:10002000000000000000000000000000871D000824
:100030000707000800000000851D0008891D000852
:100040005F0100085F0100085F0100085F01000810
:100050005F0100085F010008090700085F01000850
:100060005F0100085F0100085F0100085F010008F0
:100070005F0100085F0100085F010008D106000869
:100080005F0100085F0100085F0100085F010008D0
:100090005F0100085F0100085F0100081707000802
:1000A0005F0100085F0100085F0100085F010008B0
:1000B0005F010008251E00085F0100085F010008BD
:1000C0005F0100085F0100085F0100085F01000890
:1000D0005F0100085F0100085F0100085F01000880
:1000E0000F0700085F0100085F0100085F010008BA
:1000F0005F0100085F0100085F0100085F01000860
:100100005F0100085F0100085F0100085F0100084F
:100110005F0100085F0100085F0100085F0100083F
:100120005F0100085F0100085F0100085F0100082F
:10013000DFF80CD000F03AFA00480047D12B000855
:10014000280500200648804706480047FEE7FEE7EE
:10015000FEE7FEE7FEE7FEE7FEE7FEE7FEE7FEE777
:10016000DD1D000831010008202A04DB203A21FAB5
:1001700002F00021704721FA02F3D040C2F12002C0
:100180009140084319467047D2B201E000F8012BB4
:10019000491EFBD270470022F6E710B513460A4607
:1001A00004461946FFF7F0FF204610BD30B50B4658
:1001B000014600202022012409E021FA02F59D4297
:1001C00005D303FA02F5491B04FA02F52844151E6B
:1001D000A2F10102F1DC30BD2DE9F05F05460020FF
:1001E00092469B4688460646814640241BE02846A8
:1001F000414647462246FFF7B7FF53465A46C01AC4
:10020000914110D311461846224600F0E1F92D1A0B
:1002100067EB01084F4622460120002100F0D8F983
:1002200017EB00094E41201EA4F10104DFDC484613
:1002300031462A464346BDE8F09F2DE9FE4F8046F1
:1002400081EA0300C00F0C46009021F0004123F02A
:100250000045B8EB0200A94105D240462146904630
:100260001C460B46024623F00040104347D0270DA2
:10027000C7F30A00C3F30A510290401A01904028C4
:100280006BDAC3F3130040F4801B0098924620B150
:100290000023D2EB030A63EB0B0B01985946C0F124
:1002A0004002504600F094F906460D465046594625
:1002B000019A00F09CF910EB08006141002487EAE4
:1002C000115284EAE7731A4340D0009A62B3019A4C
:1002D000012A4FEA075215DC001B61EB02014FF0C7
:1002E000004202EA0752CDE90042001C41F58011AC
:1002F00032462B4600F09CF903B0BDE8F08F404633
:100300002146F9E7001B61EB0201001C41F5801357
:1003100000185B412018A2F5001747EB030140EAE3
:10032000D570B6196D4111E06D084FEA360645EA01
:10033000C0754FEA0752001B61EB0201001C41F53A
:10034000801149084FEA30000019514132462B46CE
:1003500003B0BDE8F04F00F05CB900980122400006
:100360000023D0EB020263EBE073009821464FEAD2
:10037000E074B8EB000061EB0401E9E783F00043AF
:100380005BE781F0004158E72DE9FE4F81EA030465
:1003900004F0004421F0004100944FF0000B23F0E2
:1003A000004350EA01045ED052EA03045BD0C3F379
:1003B0000A54C1F30A552C44A4F2F3340194A0FB6F
:1003C0000254C1F3130141F48011C3F3130343F446
:1003D000801301FB024400FB034E840A970A44EA9F
:1003E000815447EA8357A4FB076802958D0A05FBF1
:1003F00007854FEA932C04FB0C542705029D4FEA16
:10040000065847EA1637B5EB08056EEB070C870E62
:10041000920E47EA811742EA8312A7FB0201B6EB6C
:100420000B0164EB00042B0D43EA0C335E1844EB24
:100430001C50DA465146E7FB0201C5F313044FEAAC
:100440000B3343EA14534FEA0432019C43EA060398
:10045000A4F10C040294009CCDE900B400F0E8F88B
:1004600003B0BDE8F08F00200146F9E72DE9F04D1B
:1004700081EA030404F0004B21F0004514464FF0DC
:10048000000A23F0004150EA050220D054EA01029C
:100490001DD0C5F30A570246C5F31303C1F3130079
:1004A000C1F30A5640F4801543F48013A7EB060805
:1004B000101BD64608F2FD3873EB050002D308F195
:1004C000010801E092185B41B8F1000F03DA002047
:1004D0000146BDE8F08D00204FF4801106468446A9
:1004E0000EE0171B73EB050705D3121B63EB050327
:1004F00006434CEA010C49084FEA300092185B4170
:1005000050EA0107EDD152EA030012D082EA04005A
:1005100083EA0501084305D0101BAB4106D2012236
:10052000002306E000224FF0004302E06FF00102DA
:1005300053101AEB06004CEB085110EB0A0041EB8C
:100540000B01BDE8F04D00F064B8C1F30A52C1F3ED
:10055000130140F2FF3341F480119A4202DA002085
:100560000146704740F233439A42A2F2334202DC22
:100570005242FFF7F9BD00F02BB8000030B5041E61
:1005800071F1000404DB4FF00044404264EB0101D0
:10059000141E73F1000405DB1C464FF00043524269
:1005A00063EB0403994208BF904230BD064C074DEF
:1005B00006E0E06840F0010394E807009847103433
:1005C000AC42F6D3FFF7B8FDF43C0008143D000838
:1005D000202A04DB203A00FA02F100207047914003
:1005E000C2F1200320FA03F3194390407047202AF8
:1005F00006DBCB17203A41FA02F043EAE07306E04B
:1006000041FA02F3D040C2F120029140084319465A
:10061000704710B5141E73F1000408DA401C41F154
:10062000000192185B411A4301D120F0010010BD76
:100630002DE9F04D92469B4611B1B1FA81F202E0EC
:10064000B0FA80F220329046FFF7C2FF04460F4610
:1006500040EA0A0041EA0B0153465A46084313D0C8
:10066000114653EA010019D0C8F140025046FFF785
:100670007BFD05460E46504659464246FFF7A8FF09
:10068000084305D0012004E020463946BDE8F08D3E
:100690000020054346EAE0762C4337430A98630579
:1006A000E40AA0EB08000022FD0A44EA47540A309D
:1006B00002D500200146E9E7010510196941DDE98D
:1006C000084500196941BDE8F04DA2E7FEE70000CA
:1006D000014800F025B80000E400002030B590F893
:1006E00040500124AC40C56B6C6004686360436893
:1006F000102B036803D099600068C26030BD9A6017
:100700000068C16030BD7047012000F0C7B94FF4E8
:10071000004000F0C3B9202000F0C0B970470000CD
:100720002DE9F05FC16B0A6801680B68046C4FF03B
:10073000040808FA04F8844D844E854FDFF814C28B
:10074000DFF81492DFF814A2DFF814B2DFF814E235
:1007500018EA020F65D05FEA437862D50A6892060C
:1007600003D40A6822F004020A60DFF8F0814FF433
:100770008062016808F1140813011402414524D96C
:10078000A9420DD0B1420FD0B9421AD0614515D05F
:10079000494515D0514501D1120312E0594501D107
:1007A00004220EE0714501D140220AE06D4D14355E
:1007B000A94206D06B4A2832914201D11A4600E084
:1007C00022466749091F0A6029E0A94213D0B142B5
:1007D00015D0B94220D061451BD049451BD05145A9
:1007E00002D14FF4800217E0414502D14FF0806200
:1007F00012E0594501D104220EE0714501D1402299
:100800000AE0584D1435A94206D0564A2832914282
:1008100001D11A4600E022464B4908394A60C16AB4
:1008200071E04FF0020808FA04F818EA020F70D0DD
:100830005FEA83786DD50A68920606D40A6822F0CA
:100840000A020A60012180F82110DFF810814FF4BC
:100850000072016808F1140813011402414524D9FB
:10086000A9420DD0B1420FD0B9421AD0614515D07E
:10087000494515D0514501D1120312E0594501D126
:1008800002220EE0714501D120220AE0354D1435D7
:10089000A94206D0334A2832914201D11A4600E0DB
:1008A00022462F49091F0A6029E0A94213D0B1420C
:1008B00015D0B94220D061451BD049451BD05145C8
:1008C00002D14FF4001217E0414502D14FF00072FF
:1008D00012E0594501D102220EE0714501D12022DA
:1008E0000AE0204D1435A94206D01E4A2832914212
:1008F00001D11A4600E02246134908394A60002116
:1009000080F82010816A00291CD0BDE8F05F0847FC
:10091000FFE70825A540154214D01A0712D50A682A
:1009200022F00E020A6090F84020C36B012101FA08
:1009300002F25A60816380F82110002180F82010B3
:10094000016BE0E7BDE8F09F080002401C00024098
:100950003000024044000240580002406C00024057
:10096000080402401C04024030B560B11A4B026812
:1009700014219A4209D2194B1344B3FBF1F18900B7
:10098000016417490AE0012030BD134B5B42134458
:10099000B3FBF1F1890001640F490839C1630221F9
:1009A00080F82110136843F6F0718B43F0E90114CD
:1009B0002143D0E902452C43214304692143446982
:1009C00021438469214319431160002141630122BD
:1009D00042770177084630BD08040240F8FFFDBFAA
:1009E0000000024070B5044690F820000025012860
:1009F0000CD0012084F8200094F821600020012E02
:100A000006D084F820000225284670BD022070BD63
:100A1000022684F82160A0632068066826F001069B
:100A200006602046FFF75AFEE06A00282068016849
:100A300002D041F00E0106E021F0040101602068BF
:100A4000016841F00A0101602068016841F001017C
:100A50000160D9E770B5044600F034F90546601C22
:100A600002D004480078044400F02CF9401BA04256
:100A7000FAD370BD040000200749012808D02028BF
:100A800004D0B0F5004F05D1022002E0012000E0C3
:100A9000032008707047000000000020044910B5D2
:100AA0000A68024202D00860FFF7E6FF10BD0000AE
:100AB000140401402DE9F84FDFF8C891002409F132
:100AC000040A0AF1040B23460F270BF1040ED1E0B0
:100AD0000125A54006EA0502AA4276D1DFF8A8C1A1
:100AE0004E68A6EB0C0866452BD00DDC032E34D0E7
:100AF00005DC36B3012E19D0022E2FD11BE0112EAA
:100B000016D0122E2AD119E0B8F5881F19D006DCAC
:100B1000B8F5803F15D0B8F5801F1FD111E0B8F5AA
:100B2000001F0ED0B8F5041F18D10AE0CB6815E0FD
:100B3000CB681B1D12E0CB6808330FE0CB680C3389
:100B40000CE08B682BB1012B4FF0080303D04561FB
:100B500004E0042302E0056100E00023FF2A01D83D
:100B6000064601E000F104064FEA840501D9A5F12B
:100B70002005D6F8008007FA05FC28EA0C0803FADD
:100B800005F548EA0508C6F800804D68ED0070D507
:100B90003E4DAE6946F00106AE61AD6924F0030634
:100BA00005F0010500953A4D06EB050CDCF8085000
:100BB000A607360F07FA06F825EA0805DFF8D480FD
:100BC000404503D14FF0000825E052E0DFF8C8802F
:100BD000404502D14FF001081DE0DFF8C0804045DC
:100BE00002D14FF0020816E0DFF8B480404502D190
:100BF0004FF003080FE0DFF8AC80404502D14FF022
:100C0000040808E0DFF8A080404502D14FF0050855
:100C100001E04FF0060808FA06F848EA0508CCF8A3
:100C200008804D68D9F80060ED034D4601D51643A4
:100C300000E096432E604D68DAF80060AD0355463B
:100C400001D5164300E096432E604D68DBF8006046
:100C5000ED025D4601D5164300E096432E604D68D7
:100C6000DEF80060AD02754601D5164300E09643FC
:100C70002E60641C0A681646E2407FF429AFBDE886
:100C8000F88F000000040140000011100010024025
:100C90000000014000080140000C0140001001402C
:100CA0000014014000180140001C0140C2680A42C3
:100CB00001D041617047016170470AB1016170471D
:100CC0000904FBE701488068704700000400002029
:100CD0000248816802781144816070470400002056
:100CE000074810B5016841F010010160032000F0D1
:100CF00075F8002000F006F800F024F8002010BD80
:100D00000020024070B50D4D04464FF47A712878EA
:100D1000B1FBF0F00A490968B1FBF0F000F0ECFA21
:100D200048B9102C07D200222146501E00F036F898
:100D300000206C6070BD012070BD00000400002028
:100D4000100000200C4808B5816941F00101816163
:100D5000816901F001010091C16941F08051C161D7
:100D6000C06900F0805000900448416821F0E061C3
:100D700041F00071416008BD0010024000000140D8
:100D8000002809DB00F01F0201219140400980008A
:100D900000F1E020C0F8001170470000F0B40E4BE5
:100DA0001B680C46C3F30223C3F10705042D00D9C9
:100DB0000425191D072901D2002300E0DB1E0126AE
:100DC00006FA05F1491E214099409E40761E1640C4
:100DD0003143F0BC01F076BA0CED00E0064900F0BA
:100DE000070208684FF6FF03184040EA0220034A52
:100DF00010430860704700000CED00E00000FA05A9
:100E00002DE9F0470F46050061D0434E306800F0F1
:100E10000700B84209D2306820F00700384330603C
:100E2000306800F00700B84251D128683B4C810778
:100E300012D5400703D5606840F4E0606060287810
:100E4000000703D5606840F4605060606068A9687E
:100E500020F0F000084360602878C00728D0686858
:100E6000012810D02168022810D0890700292EDA25
:100E7000616821F0030101436160FFF723FF8046B1
:100E800041F288390DE021688903EFE78901EDE738
:100E9000FFF718FFA0EB0801494502D90320BDE880
:100EA000F0876068696800F00C00B0EB810FEFD14B
:100EB000306800F00700B8420BD9306820F0070016
:100EC00038433060306800F00700B84201D001209C
:100ED000E5E72878400705D56068E96820F4E06018
:100EE000084360602878000706D56068296920F407
:100EF000605040EAC100606000F038F86168084A5C
:100F0000C1F30311515CC8400649086006480068F7
:100F1000FFF7F8FE0020C2E7002002400010024068
:100F2000DC3C0008100000200800002004480549AF
:100F300000684968044AC1F30221515CC840704707
:100F40001000002000100240EC3C00080448054955
:100F500000684968044AC1F3C221515CC840704727
:100F60001000002000100240EC3C000812A185B0E7
:100F70000FC98DE80F0014A0144A0068049051684E
:100F8000134801F00C03042B10D0082B0ED1C1F331
:100F90008343C9031DF803000AD5516804AAC1F3AD
:100FA0004041515C0A4A5043B0FBF1F005B0704734
:100FB00008494843FAE70000020304050607080948
:100FC0000A0B0C0D0E0F1010010200000010024061
:100FD00000127A0000093D002DE9F84F040070D09E
:100FE0002078C04DC00749D06868C0F3810001284F
:100FF00007D06868C0F38100022809D16868C0037F
:1010000006D52868800339D560680028E7D035E028
:101010006068B0F5803F0BD010B1B0F5A02F11D0B3
:10102000286820F480302860286820F4802002E0BE
:10103000286840F480302860606890B1FFF742FE75
:1010400006460AE0286840F480202860F0E700BFE8
:10105000FFF738FE801B642873D828688003F7D513
:101060000CE0FFF72FFE064605E000BFFFF72AFE63
:10107000801B6428F0D828688003F7D420789A4E23
:1010800080074FF001094FF0000839D5686810F06B
:101090000C0F07D06868C0F38100022809D1686886
:1010A000C00306D42868800714D52069012808D118
:1010B00010E02069B0B1C6F80090FFF703FE0746C4
:1010C00005E00AE1FFF7FEFDC01B0228C4D828682E
:1010D0008007F7D52868616920F0F80040EAC10070
:1010E00028600DE0C6F80080FFF7ECFD074604E03D
:1010F000FFF7E8FDC01B022823D828688007F7D433
:10110000207800072CD57948A169D9B1C0F80090A2
:10111000FFF7D8FD074604E0FFF7D4FDC01B022807
:101120000FD8686A8007F7D571484FF4FA51006804
:10113000B0FBF1F0009000BF0098411E0091FAD280
:101140000EE080E0C0F80080FFF7BCFD074604E039
:10115000FFF7B8FDC01B022875D8686A8007F7D46E
:101160002078400760D5E8690027C00008D4E86906
:1011700040F08050E861E869012700F0805000905D
:101180005C480168C90513D40168834641F4807145
:101190000160FFF797FD824606E000BFFFF792FD72
:1011A000A0EB0A0064284ED8DBF80000C005F5D596
:1011B000E06801280AD008B1052813D0286A20F079
:1011C00001002862286A20F0040002E0286A40F04A
:1011D00001002862E06841F2883B98B1FFF772FD98
:1011E00082460BE0286A40F004002862EEE700BF68
:1011F000FFF768FDA0EB0A0159455AD8286A800715
:10120000F6D50CE0FFF75EFD824605E0FFF75AFDDC
:10121000A0EB0A0159454CD8286A8007F6D41FB1C3
:10122000E86920F08050E861E06988B36968C1F33B
:101230008101022944D00228C6F8608004D0FFF75B
:1012400041FD044638E034E0FFF73CFD074604E08A
:10125000FFF738FDC01B02282BD828688001F7D47F
:10126000206AB0F5803F05D16868A16820F400309D
:1012700008436860D4E908010843696821F47411DF
:1012800008436860C6F86090FFF71CFD044606E05E
:1012900025E000BFFFF716FD001B022809D82868CB
:1012A0008001F7D51BE000BFFFF70CFD001B0228F3
:1012B00002D90320BDE8F88F28688001F4D40EE03D
:1012C0000128F7D06868226A00F48031914204D185
:1012D000616A00F47010884201D00120EAE7002022
:1012E000E8E7000000100240000042428004424251
:1012F000100000200070004010B5401EB0F1807F4B
:1013000001D3012010BD4FF0E02460610F21601770
:1013100000F0D8FF0020A06107202061002010BD50
:101320007047704710B590F83C20012A22D0012266
:1013300080F83C20CA688C6822F4407222434C68D2
:1013400022F4806222430C6822F4006222430C697A
:1013500022F4805222434C6922F400522243C9698C
:10136000002322F480420A4301684A6480F83C303A
:10137000002010BD022010BD70B590F83C20012A5D
:1013800019D0012400F83C4F0222427050F83C3C36
:101390005A689D6822F070060A684968324325F051
:1013A000800529435A6050F83C2C9160447000211C
:1013B0000170084670BD022070BD10B5040003D056
:1013C00094F83D0010B107E0012010BD002084F822
:1013D0003C00204600F00CF8022084F83D00211D5E
:1013E000206800F025FD012084F83D00002010BD9C
:1013F00008B5114A01681148914208D1816941F448
:1014000000618161806900F40060009008BD0C4AB1
:101410009142FBD1C16941F00201C161C069002262
:1014200000F00200009011461D20FFF7B7FCBDE858
:1014300008401D20FFF7A4BC002C01400010024012
:10144000000400400168CA6842F00102CA600068F6
:10145000816801F00701062903D0016841F001010C
:1014600001600020704770B5044690F83C000128E8
:1014700017D0012584F83C50022084F83D002068F4
:10148000826822F0770222F47F4282600868502846
:1014900030D00DDC20284DD005DC98B310283BD18E
:1014A00048E0022070BD302844D0402834D139E0D3
:1014B000602828D0702806D0B0F5805F2CD0B0F519
:1014C000005F29D10AE0CB68D1E90121206800F052
:1014D00002FD2068816841F0770109E0CB68D1E91D
:1014E0000121206800F0F7FC2068816841F4804108
:1014F000816011E0CA684968206800F0C1FD502190
:10150000206807E016E0CA684968206800F0C9FD55
:101510006021206800F0E9FC84F83D50002084F848
:101520003C0070BDCA684968206800F0A9FD4021F0
:101530002068EFE7226801461046EBE7704770B578
:101540000446006801694FF00005C943890715D4B6
:10155000C168C943890711D4E91E016101202077C0
:10156000206880698007204602D0FFF7E7FF04E08B
:1015700000F0BEF8204600F040F9257720680169A8
:10158000C943490717D4C168C943490713D46FF049
:1015900004010161022020772068806910F4407FF7
:1015A000204602D0FFF7CAFF04E000F0A1F8204671
:1015B00000F023F9257720680169C943090716D48B
:1015C000C168C943090712D46FF008010161042002
:1015D00020772068C0698007204602D0FFF7AEFF61
:1015E00004E000F085F8204600F007F92577206830
:1015F0000169C943C90617D4C168C943C90613D4D0
:101600006FF010010161082020772068C06910F494
:10161000407F204602D0FFF791FF04E000F068F819
:10162000204600F0EAF8257720680169C943C90718
:1016300008D1C168C943C90704D1891E0161204688
:1016400000F0FEF820680169C943090609D4C168A1
:10165000C943090605D46FF0800101612046FFF7F8
:101660005FFE20680169C943490609D4C168C943BE
:10167000490605D46FF040010161204600F0F0F802
:1016800020680169C94389060BD4C168C94389062A
:1016900007D46FF0200101612046BDE87040FFF7DC
:1016A00040BE70BD00B585B000210091019102914E
:1016B000039100680B49884212D10B48816941F0BF
:1016C000040181618069694600F0040004904FF4D0
:1016D000006000900220019003900448FFF7EAF9AF
:1016E00005B000BD002C0140001002400008014080
:1016F000704770B5044690F83C000D4601280DD0A7
:10170000012684F83C60022084F83D0042B1042A9E
:1017100018D0082A2AD00C2A4DD139E0022070BDF9
:10172000206800F0EBFB2068816941F008018161CD
:101730002068816921F004018161206881692A693A
:10174000114311E0206800F009FC2068816941F430
:10175000006181612068816921F480618161206874
:1017600081692A6941EA0221816124E0206800F050
:101770002BFC2068C16941F00801C1612068C16982
:1017800021F00401C1612068C1692A69114311E097
:10179000206800F04DFC2068C16941F40061C1611E
:1017A0002068C16921F48061C1612068C1692A692A
:1017B00041EA0221C16184F83D60002084F83C00C8
:1017C00070BD10B5040003D094F83D0010B107E0DF
:1017D000012010BD002084F83C00204600F00CF8E9
:1017E000022084F83D00211D206800F021FB01202B
:1017F00084F83D00002010BD7047704710B50446C6
:101800000068012200F05AFB0B492068884202D090
:101810000A49884203D1416C41F400414164206887
:10182000816801F00701062903D0016841F0010138
:101830000160002010BD0000002C01400034014078
:10184000054900680968884204D14FF48071034853
:10185000FFF72CBA70470000640000200008014028
:101860007047704770B5040004D094F83900002523
:1018700010B106E0012070BD84F83850204600F019
:1018800023F8242084F839002068C16821F400512D
:10189000C160204600F076FC2068016921F4904187
:1018A00001612068416921F02A0141612068C16815
:1018B00041F40051C160E563202084F8390084F8C8
:1018C0003A00002070BD000070B586B000250646C5
:1018D000009501950295039500681E49884237D10D
:1018E0001D49886940F480408861886900F480401F
:1018F0000490886940F0040088618869174C00F002
:1019000004000490481500900220019003200390E9
:1019100069462046FFF7CEF82015CDE90005694657
:1019200020460295FFF7C6F80E4C0D48C4E90005A5
:101930008020C4E9025020202561C4E905502046DA
:10194000E561FFF711F808B1FEF7E8FE746366621F
:1019500006B070BD00380140001002400008014090
:1019600058000240E4000020F8B5044690F83A0020
:1019700020283CD1C1B3BAB394F83800012836D03E
:10198000012084F83800A162A2850025E5632220A9
:1019900084F83A00636B17489862636B1648D86204
:1019A000636B16481863606B134645630846666BA5
:1019B000216802463046091DFFF714F820680168C7
:1019C0004168009184F83850C16841F48071C16069
:1019D0002068416941F0010141612068416941F09D
:1019E000400141610020F8BDFFE70120FBE7022034
:1019F000F9E70000112100084D210008C720000868
:101A00004FF6FF730C220249024800F006B80000AE
:101A100018000020A400002070472DE9F843044678
:101A200090F839001F4616460D46202850D1A5B122
:101A30009EB194F8380001284AD0012084F838007B
:101A40004FF00008C4F83C80212084F83900FFF7EB
:101A500039F9A6848146E68426E00120BDE8F883B2
:101A6000E08C401EE084A0684B46B0F5805F4FF0EC
:101A700000024FF080012046009703D000F0DEFB0B
:101A8000E8B90DE000F0DAFBC8B928882168C0F396
:101A900008004860206908B16D1C05E0AD1C03E03A
:101AA000216815F8010B4860E08C0028D8D14B461E
:101AB000002240212046009700F0C0FB08B103201F
:101AC000CCE7202084F8390084F838800020C5E76E
:101AD0000220C3E7FEE70000094808B5416941F06C
:101AE000010141614069002200F0010000901146AF
:101AF0000F20FFF753F9BDE808400F20FFF740B96A
:101B0000001002402DE9F04385B000253C480095C7
:101B1000019502950395816941F010018161816908
:101B200001F010010491816941F020018161816916
:101B300001F020010491816941F004018161816912
:101B400001F004010491816941F00801816180691B
:101B5000012200F00800DFF8AC801702049039463B
:101B60004046FFF7AAF8DFF8A0900122042148467A
:101B7000FFF7A3F80124254E02200094CDE901606F
:101B800069464046FEF796FF2020CDE900066946EB
:101B900002941F48FEF78EFFCDE900740327CDE9BC
:101BA000025769464046FEF785FFE003CDE900068F
:101BB000694602944046FEF77DFF04208DE8B1009F
:101BC00069464846FEF776FF002201210620FFF70E
:101BD000E5F80620FFF7D4F8002201211720FFF7CF
:101BE000DDF81720FFF7CCF8002201212820FFF7AD
:101BF000D5F82820FFF7C4F805B0BDE8F083000051
:101C000000100240000801400014014000001110C3
:101C10000010014010B596B000240F941094119458
:101C2000129413941C2108A81494FEF7B4FA2021EE
:101C30006846FEF7B0FA2948274901602321C0E928
:101C4000011449F63F41C0E9031444618461FFF780
:101C5000B4FB08B1FEF762FD4FF480500F900FA95E
:101C60001E48FFF700FC08B1FEF758FD1B48FFF7C0
:101C7000A8FD08B1FEF752FD139413A91748149458
:101C8000FFF77AFB08B1FEF749FD6020089040F2AB
:101C9000E730CDE909040C940D940C2208A90F48F3
:101CA0000E94FFF726FD08B1FEF738FD00944FF4BF
:101CB0000050CDE90440029401940394694607481A
:101CC0000794FFF72FFB08B1FEF728FD0348FFF745
:101CD000E9FC16B010BD0000002C014024000020DB
:101CE00010B586B000241748009401940294039420
:101CF000049413490594016048F69F41C0E901141A
:101D000040F2E731C0E903148461FFF756FB08B1E4
:101D1000FEF704FD4FF48050009069460948FFF734
:101D2000A2FB08B1FEF7FAFC049404A90548059447
:101D3000FFF722FB002801D0FEF7F0FC06B010BD33
:101D400000040040640000200C4810B50A490160FE
:101D50004FF4E1314160002181600C22C160C0E993
:101D600004128161C161FFF77DFD002803D0BDE849
:101D70001040FEF7D3BC10BD00380140A400002085
:101D8000FEE7704770477047FEF7A2BF30B58FB0CF
:101D900028216846FEF7FFF914210AA8FEF7FBF98F
:101DA00001210804CDE900100024029402250491C9
:101DB000CDE907504FF4E01009906846FFF70CF9A1
:101DC0000F20CDE90A056802CDE90C4002210AA8DE
:101DD0000E94FFF715F80FB030BD00000D480168F4
:101DE00041F00101016041680B4A11404160016806
:101DF0000A4A11400160016821F4802101604168B4
:101E000021F4FE0141604FF41F0181600449C003C9
:101E100008607047001002400000FFF8FFFFF6FE68
:101E200008ED00E00148FFF78ABB000064000020D5
:101E3000F0B502681C4B1D4D1D4E1E4F1E4C4FF041
:101E4000804C984209D0A04207D0604505D0A842F6
:101E500003D0B04201D0B84204D122F0700E4A68DB
:101E600042EA0E02984209D0A04207D0604505D050
:101E7000A84203D0B04201D0B84203D122F4407549
:101E8000CA682A434D6922F080022A4302608A68A8
:101E9000C2620A688262984201D0A04201D10969F7
:101EA000016301214161F0BD002C014000040040AC
:101EB00000080040000C00400034014010B501F063
:101EC0001F030121046A99408C430462016A9A400D
:101ED0001143016210BD10B5846842EA032224F464
:101EE0007F440A432243826010BD826822F0700260
:101EF0000A4342F00701816070470000F0B5026AB2
:101F000022F001020262036A42688469124E24F0E0
:101F100073050C682C4323F002058B682B430D4D91
:101F2000A84201D0B04205D123F00807CB683B435B
:101F300023F00403A84201D0B04205D14D6922F438
:101F4000407215438A692A4342608461496841634B
:101F50000362F0BD002C014000340140F0B5026A7C
:101F600022F010020262026A436884690D6824F458
:101F7000E64444EA05248D6822F0200242EA051274
:101F80000F4D104EA84201D0B04206D1CF6822F0CA
:101F9000800242EA071222F04002A84201D0B04279
:101FA00007D14D6923F4406343EA85038D6943EA11
:101FB000850343608461496881630262F0BD00006B
:101FC000002C014000340140F0B5026A22F4807216
:101FD0000262026A4368C46922F4007224F0730545
:101FE0000C68124E2C438D6842EA05220E4DA84221
:101FF00001D0B04206D1CF6822F4006242EA072243
:1020000022F48062A84201D0B04207D14D6923F486
:10201000405343EA05138D6943EA05134360C461E5
:102020004968C1630262F0BD002C014000340140E8
:1020300030B5026A22F480520262046A4268C369BF
:102040000D6823F4E64343EA05238D6824F4005425
:1020500044EA0534084DA84202D0084DA84204D1F4
:102060004D6922F4804242EA85124260C3614968A8
:102070000164046230BD0000002C014000340140C6
:1020800010B5036A046A24F001040462846924F030
:10209000F00444EA021423F00A020A438461026253
:1020A00010BD10B5036A23F0100303628369046A4C
:1020B00023F4704343EA023224F0A00343EA0111FF
:1020C0008261016210BD70B5446A2068406994F86D
:1020D0003910C0F3C0100025212904D118B1E584BE
:1020E000204600F046F82068406994F83A10C0F3A2
:1020F0008010222904D118B1E585204600F02BF884
:10210000E06B40F01000E0632046FFF7AAFB70BDD3
:1021100010B50146406A09680968890613D4002190
:10212000C1850168CA6822F48072CA6001684A6980
:1021300022F001024A6101684A6922F040024A61C4
:10214000202180F83A10FFF75BFC10BD10B5406A03
:10215000FFF762FC10BD0168CA6822F49072CA6081
:1021600001684A6922F001024A61202180F83A1090
:1021700070470168CA6822F0C002CA60202180F856
:10218000391070472DE9F041044600680169E268A2
:1021900021F44051114301612169A068084361693C
:1021A00008432168CA6841F20C639A430243CA603B
:1021B00020684169A26921F44071114341611E49BF
:1021C000206864253226884202D1FEF7BFFE01E076
:1021D000FEF7ACFE00EBC00101EB001160686FF090
:1021E00018078000B1FBF0F2B2FBF5F2B1FBF0F39F
:1021F0007A4303EB8202B1FBF0F306EB0212B2FB6F
:10220000F5F2B3FBF5F302F0F00202EB0312B1FBBF
:10221000F0F3B1FBF0F0B0FBF5F0784303EB800096
:1022200006EB0010B0FBF5F0216800F00F00104441
:102230008860BDE8F0810000003801402DE9F041E0
:10224000984617460E460446069D1DE0681C1BD0A6
:102250002DB1FEF737FDA0EB0800A84214D9206885
:10226000C16821F4D071C1602068416921F0010189
:102270004161202084F8390084F83A00002084F875
:1022800038000320BDE8F0812068006836EA0000CD
:1022900004D00020B842D9D00020F3E70120F9E7AC
:1022A000FEE700000FB4054B10B503A9044A0298DD
:1022B00000F0EAF810BC5DF814FB0000B92B000830
:1022C000140000200907090E002804DB00F1E020BB
:1022D00080F80014704700F00F0000F1E02080F853
:1022E000141D704702E008C8121F08C1002AFAD165
:1022F00070477047002001E001C1121F002AFBD186
:10230000704700002DE9FF5F82B00021DDE9043055
:10231000020DDDF840B0034318D044F61050A2F28D
:10232000FF3242431514119801281FD0A5EB0B0072
:10233000401C5FEA000A4FF000064E4FDFF838916C
:10234000B046504615D5CAF1000413E01198012497
:102350004AA3012801D16FEA0B010298119AC0E942
:102360000031C0E9024206B0BDE8F09FCBF10000A9
:10237000DFE704460021404A491842EB0450CDE90A
:10238000001012E0E00707D032463B46404649467F
:10239000FDF7FAFF8046894632463B46104619460D
:1023A000FDF7F2FF06460F466410002CEAD1DDE986
:1023B0000401DDE90023BAF1000F06DAFDF7E4FFBE
:1023C00042464B46FDF7E0FF05E0FEF74FF8424678
:1023D0004B46FEF74BF804460E460022284BFEF70C
:1023E000CDF803D84FF0FF30014607E00022254B1F
:1023F00020463146FDF721FFFEF7A7F8102409E03B
:10240000002C0ADB0A220023FDF7E6FE039B303294
:102410001A55641E50EA0102F2D1641C039AC4F1F9
:1024200011031444119A012A03D0012208430DD14B
:102430000AE0084304D000204FF0110B119072E71E
:10244000A3EB0B056D1E0DE05B4504DD4FF00002B4
:1024500005F1010504E003DA4FF00002A5F10105E2
:10246000002AECD002981199C0E90231C0E9004578
:1024700079E70000000014400000F03F3000000049
:102480000000F0430000E03F2DE9FF4F95B09B4670
:102490008946064600250FE2252877D100242746E5
:1024A000F84A0121059400E0044316F8013F203B5F
:1024B00001FA03F01042F7D130782A2811D06FF0DA
:1024C0002F033078A0F13002092A16D8059A44F07B
:1024D000020402EB820203EB42021044761C0590D8
:1024E000EFE759F8042B0592002A03DA504244F42E
:1024F0000054059044F00204761C30782E2816D142
:1025000016F8010F44F004042A280DD06FF02F02B2
:102510003078A0F13003092B09D807EB870302EBD1
:102520004303C718761CF3E759F8047B761C307810
:102530006C280FD006DC4C2817D068280DD06A28EC
:1025400014D104E0742810D07A280FD10DE044F49F
:1025500000140AE044F4801401E044F4401472785A
:10256000824202D104F58014761C761C30786628ED
:102570000BD013DC582877D009DC002875D045280B
:10258000F6D04628F4D047281AD19DE118E06328F8
:1025900035D0642879D0652812D195E1702873D0A0
:1025A00008DC6728F1D069286FD06E280DD06F281D
:1025B00006D1B5E073282CD0752875D0782874D052
:1025C0005A46179990476D1C75E1C4F302500228D2
:1025D00009D003280DD0D9F8001004280DD00D60C3
:1025E00009F1040967E1D9F80010EA17C1E90052BE
:1025F000F6E7D9F800100D80F2E70D70F0E719F852
:10260000041B8DF8001000208DF80100EA4601201F
:1026100003E059F804AB4FF0FF3061074FF00001C1
:1026200002D40DE008F101018846B9420FDA804575
:10263000F8DB1AF808100029F4D108E008F10101CC
:1026400088468142FADB1AF808100029F6D105986D
:102650005B46A0EB080721463846179A00F094FA2B
:10266000284400EB080507E04DE029E10DE01AF8E9
:10267000010B5A4617999047B8F10108F7D25B460B
:1026800021463846179A13E142E00A220092C4F329
:1026900002524FF0000A022A08D059F804CB032A4C
:1026A0004FEAEC710AD00DE029E02AE009F10701B8
:1026B00021F00702F2E802C1914609E00FFA8CFC12
:1026C0004FEAEC71042A03D14FFA8CFC4FEAEC710B
:1026D000002907DA0A460021DCF1000C61EB020157
:1026E0002D2202E0220504D52B228DF804200122A0
:1026F00003E0E20701D02022F7E7904659E00A21E3
:1027000002E010220DE010214FF0000A00910BE0D2
:1027100010224FF0000A44F004040827009203E05E
:1027200008224FF0000A0092C4F30252022A05D098
:1027300059F804CB0021032A08D009E009F1070168
:1027400021F00702F2E802C1914605E01FFA8CFC75
:10275000042A01D10CF0FF0C4FF00008220728D505
:10276000702806D0009B83F0100353EA0A0305D0BB
:102770000EE040228DF80420012208E05CEA01020C
:1027800006D030228DF804208DF8050002229046F4
:10279000009B83F0080353EA0A030AD15CEA0102B2
:1027A00001D1620705D530228DF804204FF00108D1
:1027B0007F1E582804D034A003900EA802900DE08C
:1027C00036A0F9E753466046009AFDF705FD8446BA
:1027D0000398825C0298401E029002705CEA01003D
:1027E000F0D1029806A9081A00F1200A600702D564
:1027F00024F4803400E00127574502DDA7EB0A00EE
:1028000000E0002000EB0A01009005984144401AC6
:102810000590E00306D45B462146179A059800F020
:10282000B3F90544002706E001A85A46C05D179990
:1028300090476D1C7F1C4745F6DBE0030CD55B46DB
:102840002146179A059800F09FF9054404E03020CE
:102850005A46179990476D1C0099481E0090002910
:10286000F5DC08E0029802995A460078491C02916A
:10287000179990476D1CBAF10001AAF1010AF1DC29
:1028800065E1000009280100303132333435363734
:1028900038396162636465660000000030313233AC
:1028A000343536373839414243444546000000004C
:1028B00000F058F90544761C307800287FF4ECAD20
:1028C00019B02846BDE8F08F620700D4062709F149
:1028D000070222F0070CFCE80223E14603F000485F
:1028E0005FEA080C02D00FF2702C0DE05FEA045C86
:1028F00002D50FF2682C07E05FEAC47C02D00FF229
:10290000602C01E0AFF2700C4FF0FF3823F0004371
:10291000CDF850C065280CD006DC452809D04628E3
:102920001DD047283DD13DE0662818D067287ED1CC
:1029300038E00021112F01DB112000E0781CCDE9E7
:10294000000106A90EA8FFF7DDFCDDE90F010E9AD4
:1029500003910021009207F1010A04914DE04FF02C
:1029600000400097CDE9011006A90EA8FFF7CAFCA8
:10297000DDE90F0203920E9B11990022DDF80CA0F5
:102980000093049211B9791C00EB010AB7EB0A001D
:1029900004D4C0F1FF3007F1010A0490AAEB07004C
:1029A000019044E0012F00DA01270021112F01DD01
:1029B000112000E03846CDE9000106A90EA8FFF776
:1029C000A1FCDDE90F010E9A039100210491009210
:1029D000BA4621070CD40399514500DA8A46BAF168
:1029E000010F05DD009AAAF10101515C302908D0E0
:1029F000B84202DA10F1040F06DA0121CDE9011024
:102A000015E0AAF10101E9E7002805DC0499014479
:102A10000491AAEB000102E0411C514500DD8A4609
:102A20000499401A401C01904FF00040029020078A
:102A300004D40198504501DBCDF8048000208DF8C6
:102A40004F0002980DF14F07B0F1004F25D02B2019
:102A50000E9002984FF0020800280CDA40420290D3
:102A60002D200E9007E00A210298FDF79FFB3031E0
:102A7000029007F8011DB8F10001A8F10108F2DC8D
:102A800002980028EFD1791E0E980870307800F077
:102A9000200040F0450007F8020D12A8C01B00F10D
:102AA00007081498007800B1012000EB0A01019892
:102AB00001EBE07105984144401A401E0590E00387
:102AC00006D45B462146179A059800F05DF8054448
:102AD0001498007818B15A46179990476D1CE00376
:102AE00024D55B462146179A059800F04DF8054419
:102AF0001CE00498002807DBDDE90301884203DDC0
:102B00000098405C179901E0179930205A46904789
:102B1000049805F10105401C04900198401E0190A5
:102B200004D12E205A46179990476D1CBAF1000126
:102B3000AAF1010ADDDC05E017F8010B5A461799E6
:102B400090476D1CB8F10001A8F10108F4DC5B4668
:102B50002146179A0598ABE62D0000002B000000D7
:102B6000200000002DE9F041044600251E461746CE
:102B7000880404D405E039462020B0476D1C641E4B
:102B8000F9D52846BDE8F0812DE9F041044600253D
:102B90001E469046C80301D5302700E02027880450
:102BA00004D505E041463846B0476D1C641EF9D592
:102BB0002846BDE8F081000004490A685206FCD5A9
:102BC000024AC1B2121D1160704700000038014076
:102BD0004FF4FA740025FEF783F8FFF7D7F8FEF7F5
:102BE00091FFFEF779FFFFF7AFF8FFF713F8FFF754
:102BF00077F80C212B48FEF701FE2B48FEF722FC4C
:102C00000C222A492A48FEF7AFFE2AA12CA0FFF782
:102C100049FB64212FA0FFF745FB334A334B34A017
:102C2000FFF740FB642138A0FFF73CFB3C4EDFF888
:102C3000F4B03D4F4FF000094FF4167A41F294186A
:102C40003078012804D0022804D003280AD125E0D6
:102C5000C83400E0C83CA4B204215846FEF726F868
:102C600086F8009007EB850057F82510D0F81C3344
:102C7000D0F83C262DA0FFF715FB28466D1CADB201
:102C8000504500D30025A4F5FA704045D8D8C82097
:102C9000FDF7E0FE034800680464D1E741F28834A0
:102CA000DAE7000024000020640000201800002063
:102CB000A40000206D63756C6F7665723636360041
:102CC00048656C6C6F2C206920616D2025730D0A9E
:102CD000000000005465737420696E743A20692006
:102CE0003D2025640D0A00005839B4C876BEF33F74
:102CF0005465737420666C6F61743A2069203D20BE
:102D000025660D0A0000000054657374206865781C
:102D10003A2069203D2030782532780D0A000000E5
:102D200000000020001401403C2D000844415441A3
:102D30003A25642C25642C25640A0000B1040000A7
:102D4000BD040000CA040000D6040000E304000033
:102D5000EF040000FC040000080500001505000059
:102D6000210500002E0500003A050000470500007F
:102D700053050000600500006C05000078050000A8
:102D800085050000910500009D050000AA050000D2
:102D9000B6050000C2050000CE050000DA050000FF
:102DA000E7050000F3050000FF0500000B0600002A
:102DB00017060000230600002F0600003A06000058
:102DC00046060000520600005E060000690600008C
:102DD00075060000810600008C06000098060000C1
:102DE000A3060000AE060000BA060000C5060000FB
:102DF000D0060000DB060000E6060000F106000039
:102E0000FC06000007070000120700001D07000075
:102E100027070000320700003D07000047070000B9
:102E2000510700005C070000660700007007000003
:102E30007A070000840700008E0700009807000052
:102E4000A2070000AC070000B5070000BF070000A4
:102E5000C8070000D1070000DB070000E4070000FE
:102E6000ED070000F6070000FF070000080800005B
:102E70001008000019080000210800002A080000BE
:102E8000320800003A080000430800004B08000028
:102E9000520800005A080000620800006A0800009A
:102EA0007108000079080000800800008708000011
:102EB0008E080000950800009C080000A308000090
:102EC000A9080000B0080000B6080000BD08000016
:102ED000C3080000C9080000CF080000D5080000A2
:102EE000DA080000E0080000E5080000EB08000038
:102EF000F0080000F5080000FA080000FF080000D4
:102F000004090000090900000D0900001109000072
:102F1000160900001A0900001E090000220900001D
:102F200026090000290900002D09000030090000D1
:102F300033090000370900003A0900003D0900008C
:102F40003F09000042090000440900004709000051
:102F5000490900004B0900004D0900004F0900001D
:102F600051090000520900005409000055090000F1
:102F700056090000580900005909000059090000CD
:102F80005A0900005B0900005B0900005B090000B2
:102F90005B0900005B0900005B0900005B090000A1
:102FA0005B0900005A0900005A0900005909000095
:102FB0005809000057090000560900005509000093
:102FC0005309000052090000500900004E0900009A
:102FD0004C0900004A0900004809000046090000A9
:102FE00043090000410900003E0900003B090000C0
:102FF0003809000035090000320900002F090000DF
:103000002B09000027090000240900002009000006
:103010001C09000018090000140900000F09000035
:103020000B0900000609000002090000FD0800006D
:10303000F8080000F3080000ED080000E8080000B0
:10304000E3080000DD080000D7080000D2080000F7
:10305000CC080000C6080000C0080000B908000045
:10306000B3080000AD080000A60800009F0800009B
:1030700099080000920800008B08000083080000F7
:103080007C080000750800006D080000660800005C
:103090005E080000560800004F08000047080000C6
:1030A0003E080000360800002E0800002608000038
:1030B0001D080000150800000C08000003080000AF
:1030C000FA070000F1070000E8070000DF07000032
:1030D000D6070000CD070000C3070000BA070000B4
:1030E000B0070000A70700009D070000930700003D
:1030F000890700007F070000750700006B070000CC
:1031000061070000570700004C070000420700005D
:10311000370700002D0700002207000017070000F6
:103120000D07000002070000F7060000EC06000093
:10313000E1060000D6060000CB060000BF06000036
:10314000B4060000A90600009D06000092060000DB
:10315000860600007B0600006F0600006406000083
:10316000580600004C06000040060000350600002E
:10317000290600001D0600001106000005060000DB
:10318000F9050000ED050000E1050000D405000090
:10319000C8050000BC050000B0050000A405000043
:1031A000970500008B0500007F05000072050000F8
:1031B00066050000590500004D05000041050000AE
:1031C00034050000280500001B0500000F05000065
:1031D00002050000F6040000E9040000DD04000020
:1031E000D0040000C3040000B7040000AA040000DB
:1031F0009E04000091040000850400007804000093
:103200006C0400005F04000053040000460400004A
:103210003A0400002D040000210400001404000002
:1032200008040000FB030000EF030000E3030000BC
:10323000D6030000CA030000BE030000B103000073
:10324000A5030000990300008D0300008103000026
:1032500074030000680300005C03000050030000DA
:1032600044030000380300002C0300002103000089
:103270001503000009030000FD020000F202000037
:10328000E6020000DA020000CF020000C3020000E4
:10329000B8020000AD020000A1020000960200008A
:1032A0008B02000080020000750200006A0200002C
:1032B0005F02000054020000490200003E020000CC
:1032C00034020000290200001E0200001402000067
:1032D0000A020000FF010000F5010000EB01000000
:1032E000E1010000D7010000CD010000C301000092
:1032F000B9010000AF010000A60100009C01000020
:10330000930100008A0100008001000077010000A5
:103310006E010000650100005C0100005301000027
:103320004B010000420100003A01000031010000A1
:103330002901000021010000180100001001000017
:103340000901000001010000F9000000F100000087
:10335000EA000000E2000000DB000000D4000000F2
:10336000CD000000C6000000BF000000B800000053
:10337000B2000000AB000000A50000009E000000AD
:1033800098000000920000008C0000008600000001
:10339000810000007B00000076000000700000004B
:1033A0006B00000066000000610000005C0000008F
:1033B00057000000520000004E0000004A000000CC
:1033C00045000000410000003D0000003900000001
:1033D00035000000320000002E0000002B0000002D
:1033E0002800000024000000210000001E00000052
:1033F0001C0000001900000017000000140000006D
:1034000012000000100000000E0000000C00000080
:103410000A0000000900000007000000060000008C
:103420000500000003000000020000000200000090
:10343000010000000000000000000000000000008B
:10344000000000000000000000000000000000007C
:103450000000000001000000010000000200000068
:10346000030000000400000005000000060000004A
:1034700008000000090000000B0000000D00000023
:103480000F000000110000001300000015000000F4
:10349000180000001A0000001D00000020000000BD
:1034A0002300000026000000290000002C0000007E
:1034B0003000000034000000370000003B00000036
:1034C0003F00000043000000470000004C000000E7
:1034D0005000000055000000590000005E00000090
:1034E00063000000680000006E0000007300000030
:1034F000780000007E0000008400000089000000C9
:103500008F000000950000009B000000A20000005A
:10351000A8000000AE000000B5000000BC000000E4
:10352000C2000000C9000000D0000000D800000068
:10353000DF000000E6000000EE000000F5000000E3
:10354000FD000000050100000C0100001401000056
:103550001D010000250100002D01000035010000C3
:103560003E010000460100004F010000580100002C
:10357000610100006A010000730100007C0100008D
:10358000850100008E01000098010000A1010000EB
:10359000AB010000B4010000BE010000C801000042
:1035A000D2010000DC010000E6010000F001000093
:1035B000FA010000040200000F02000019020000DE
:1035C000240200002E020000390200004402000024
:1035D0004E02000059020000640200006F02000069
:1035E0007A02000085020000900200009C020000A8
:1035F000A7020000B2020000BE020000C9020000E3
:10360000D5020000E0020000EC020000F70200001A
:10361000030300000F0300001B030000260300004B
:10362000320300003E0300004A030000560300007E
:10363000620300006E0300007A03000087030000AD
:10364000930300009F030000AB030000B7030000DA
:10365000C4030000D0030000DC030000E903000005
:10366000F5030000020400000E0400001A0400002C
:103670002704000033040000400400004C04000054
:103680005904000065040000720400007E0400007C
:103690008B04000098040000A4040000B1040000A2
:1036A000BD040000CA040000D6040000E3040000CA
:1036B000EF040000FC0400000805000015050000F0
:1036C000210500002E0500003A0500004705000016
:1036D00053050000600500006C050000780500003F
:1036E00085050000910500009D050000AA05000069
:1036F000B6050000C2050000CE050000DA05000096
:10370000E7050000F3050000FF0500000B060000C0
:1037100017060000230600002F0600003A060000EE
:1037200046060000520600005E0600006906000022
:1037300075060000810600008C0600009806000057
:10374000A3060000AE060000BA060000C506000091
:10375000D0060000DB060000E6060000F1060000CF
:10376000FC06000007070000120700001D0700000C
:1037700027070000320700003D0700004707000050
:10378000510700005C07000066070000700700009A
:103790007A070000840700008E07000098070000E9
:1037A000A2070000AC070000B5070000BF0700003B
:1037B000C8070000D1070000DB070000E407000095
:1037C000ED070000F6070000FF07000008080000F2
:1037D0001008000019080000210800002A08000055
:1037E000320800003A080000430800004B080000BF
:1037F000520800005A080000620800006A08000031
:1038000071080000790800008008000087080000A7
:103810008E080000950800009C080000A308000026
:10382000A9080000B0080000B6080000BD080000AC
:10383000C3080000C9080000CF080000D508000038
:10384000DA080000E0080000E5080000EB080000CE
:10385000F0080000F5080000FA080000FF0800006A
:1038600004090000090900000D0900001109000009
:10387000160900001A0900001E09000022090000B4
:1038800026090000290900002D0900003009000068
:1038900033090000370900003A0900003D09000023
:1038A0003F090000420900004409000047090000E8
:1038B000490900004B0900004D0900004F090000B4
:1038C0005109000052090000540900005509000088
:1038D0005609000058090000590900005909000064
:1038E0005A0900005B0900005B0900005B09000049
:1038F0005B0900005B0900005B0900005B09000038
:103900005B0900005A0900005A090000590900002B
:103910005809000057090000560900005509000029
:103920005309000052090000500900004E09000030
:103930004C0900004A09000048090000460900003F
:1039400043090000410900003E0900003B09000056
:103950003809000035090000320900002F09000075
:103960002B0900002709000024090000200900009D
:103970001C09000018090000140900000F090000CC
:103980000B0900000609000002090000FD08000004
:10399000F8080000F3080000ED080000E808000047
:1039A000E3080000DD080000D7080000D20800008E
:1039B000CC080000C6080000C0080000B9080000DC
:1039C000B3080000AD080000A60800009F08000032
:1039D00099080000920800008B080000830800008E
:1039E0007C080000750800006D08000066080000F3
:1039F0005E080000560800004F080000470800005D
:103A00003E080000360800002E08000026080000CE
:103A10001D080000150800000C0800000308000045
:103A2000FA070000F1070000E8070000DF070000C8
:103A3000D6070000CD070000C3070000BA0700004A
:103A4000B0070000A70700009D07000093070000D3
:103A5000890700007F070000750700006B07000062
:103A600061070000570700004C07000042070000F4
:103A7000370700002D07000022070000170700008D
:103A80000D07000002070000F7060000EC0600002A
:103A9000E1060000D6060000CB060000BF060000CD
:103AA000B4060000A90600009D0600009206000072
:103AB000860600007B0600006F060000640600001A
:103AC000580600004C0600004006000035060000C5
:103AD000290600001D060000110600000506000072
:103AE000F9050000ED050000E1050000D405000027
:103AF000C8050000BC050000B0050000A4050000DA
:103B0000970500008B0500007F050000720500008E
:103B100066050000590500004D0500004105000044
:103B200034050000280500001B0500000F050000FB
:103B300002050000F6040000E9040000DD040000B6
:103B4000D0040000C3040000B7040000AA04000071
:103B50009E04000091040000850400007804000029
:103B60006C0400005F0400005304000046040000E1
:103B70003A0400002D040000210400001404000099
:103B800008040000FB030000EF030000E303000053
:103B9000D6030000CA030000BE030000B10300000A
:103BA000A5030000990300008D03000081030000BD
:103BB00074030000680300005C0300005003000071
:103BC00044030000380300002C0300002103000020
:103BD0001503000009030000FD020000F2020000CE
:103BE000E6020000DA020000CF020000C30200007B
:103BF000B8020000AD020000A10200009602000021
:103C00008B02000080020000750200006A020000C2
:103C10005F02000054020000490200003E02000062
:103C200034020000290200001E02000014020000FD
:103C30000A020000FF010000F5010000EB01000096
:103C4000E1010000D7010000CD010000C301000028
:103C5000B9010000AF010000A60100009C010000B6
:103C6000930100008A01000080010000770100003C
:103C70006E010000650100005C01000053010000BE
:103C80004B010000420100003A0100003101000038
:103C900029010000210100001801000010010000AE
:103CA0000901000001010000F9000000F10000001E
:103CB000EA000000E2000000DB000000D400000089
:103CC000CD000000C6000000BF000000B8000000EA
:103CD000B2000000AB000000A500000000000000E2
:103CE00000000000010203040607080900000000AC
:103CF00001020304143D0008000000201800000029
:103D0000E42200082C3D00081800002010050000E7
:103D1000F422000800000000010000001000000074
:0C3D2000000000000024F400000000007F
:0400000508000131BD
:00000001FF
